:100000000C94A6050C94C3050C94C3050C947E2790
:100010000C94C3050C94C3050C94C3050C94C30540
:100020000C94C3050C94C3050C94DC100C941615A9
:100030000C9443210C94C3050C94C3050C94C30584
:100040000C94C3050C94C3050C94C3050C94C30510
:100050000C94C3050C94C3110C94C3050C94C305F4
:100060000C94C3050C94C3050C94C3050C94C305F0
:100070000C94C3050C94C3050C94C3050C94C305E0
:100080000C94C3050C94C3050C94C3050C94C305D0
:100090000C94C3050C94C3050C94C3050C94C305C0
:1000A0000C94C3050C94C3050C94C30529001E00D1
:1000B0001F002000210022002B0014001A0008005D
:1000C00015001700E00004001600070009000A46AA
:1000D00063521D451B00060019000545E300E200C0
:1000E00035022A412C22AE002A00270026002500D6
:1000F000240023002D00130012000C0018001C0027
:10010000324533000F000E000D000B006352380023
:1001100037003600100011004D004A0034452A42D5
:100120001E7C390029003A003B003C003D003E00A7
:100130002B0031005600570026022702E0002D0256
:10014000540055002F003000850063002F0230025C
:1001500033002E00E300E2004C0001002C22B2002C
:10016000440043004200410040003F004500370288
:1001700024021E02250223024B0036022D02220217
:10018000330221024E008500630038021F02200264
:100190004D004A004C002A001E7CB20029003A00A3
:1001A0003B003C003D003E002B0031005600570054
:1001B00026022702E0002D02540055002F003000D7
:1001C000850063002F02300233002E00E300E200BE
:1001D0004C002A002C22B20044004300420041009F
:1001E00040003F004500370224021E022502230280
:1001F0004B0036022D022202330221024E008500FE
:10020000630038021F0220024D004A004C0001002A
:100210001E7CB2002900AE00AC00AB000000000064
:100220002B0000000000520000000000E000000071
:10023000500051004F0000000100000000000000CD
:1002400000000000E300E2004C002A412C22B20032
:10025000AE0000000000000000000000AB00000045
:100260000000520000000000AC0000004F005100F0
:10027000500000000100000000000000000000002D
:100280004D004A004C002A421E7CB20001000100D1
:100290000100010001000100010001000100010056
:1002A0000100010001000100010001000100010046
:1002B0000100010001000100010001000100010036
:1002C0000100010001000100010001000100010026
:1002D0000100010001000100010001000100010016
:1002E0000100010001000100010001000100010006
:1002F00001000100010001000100010001000100F6
:100300000100010029001E05000020052105000054
:1003100039000000CF00CE00CD00D000E100000089
:100320005000510052004F00E0000000D500D40002
:10033000D200D100E300E2004C0000002C22B20009
:100340004C0000000000DF00DE00DD006223000042
:10035000D000CD00CE00CF00350000004F0052008D
:100360005100500000000000D500D400D200D100A0
:100370004D004A004C0000001E7CB2002900000025
:1003800000000000000000002B0000000000000042
:1003900000000000E100000000000000000000007C
:1003A000E00000000000000000000000E300E200A8
:1003B0004C002A002C22B20000000000560055001C
:1003C00054005300350000005700610060005F00DA
:1003D0003502000067005E005D005C003402000032
:1003E00063005B005A0059000000850062002A008B
:1003F0001E7CB20000DA0281FFD9F1DB20A4A62E18
:10040000AF00A0C0D30000A1C8D30000AED580A823
:100410001F408D14200007087F0807003E5B4F5BDC
:100420003E003E6B4F6B3E001C3E7C3E1C00183C69
:100430007E3C18001C577D571C001C5E7F5E1C0014
:1004400000183C180000FFE7C3E7FF00001824185D
:100450000000FFE7DBE7FF0030483A060E002629E0
:1004600079292600407F05050700407F05253F00CC
:100470005A3CE73C5A007F3E1C1C0800081C1C3EEE
:100480007F0014227F2214005F5F005F5F00060977
:100490007F017F00006689956A006060606060008F
:1004A00094A2FFA2940008047E04080010207E207D
:1004B000100008082A1C0800081C2A0808001E1042
:1004C000101010000C1E0C1E0C0030383E3830008E
:1004D000060E3E0E060000000000000000005F0057
:1004E0000000000700070000147F147F1400242A76
:1004F0007F2A1200231308646200364956205000F8
:10050000000807030000001C224100000041221CDB
:1005100000002A1C7F1C2A0008083E0808000080F2
:100520007030000008080808080000006060000043
:100530002010080402003E5149453E0000427F4021
:1005400000007249494946002141494D33001814C1
:10055000127F10002745454539003C4A4949310082
:1005600041211109070036494949360046494929C0
:100570001E000000140000000040340000000008CD
:100580001422410014141414140000412214080011
:100590000201590906003E415D594E007C121112BC
:1005A0007C007F49494936003E41414122007F415C
:1005B00041413E007F49494941007F090909010045
:1005C0003E41415173007F0808087F0000417F4190
:1005D00000002040413F01007F08142241007F407D
:1005E000404040007F021C027F007F0408107F0013
:1005F0003E4141413E007F09090906003E4151212B
:100600005E007F0919294600264949493200030145
:100610007F0103003F4040403F001F2040201F005B
:100620003F4038403F00631408146300030478041B
:1006300003006159494D4300007F414141000204DC
:1006400008102000004141417F0004020102040023
:100650004040404040000003070800002054547808
:1006600040007F284444380038444444280038443B
:1006700044287F0038545454180000087E090200B2
:1006800018A4A49C78007F080404780000447D40EE
:1006900000002040403D00007F1028440000004141
:1006A0007F4000007C04780478007C080404780013
:1006B000384444443800FC18242418001824241812
:1006C000FC007C080404080048545454240004042A
:1006D0003F4424003C4040207C001C2040201C0063
:1006E0003C4030403C004428102844004C909090FE
:1006F0007C004464544C4400000836410000000073
:1007000077000000004136080000020102040200E8
:100710003C2623263C00000000000000404040F042
:10072000F8F8FF38FFF8F83FF8F8FF38FFF8F8F06E
:1007300040404000000000000080C0C0C0800000B9
:10074000C0C08000000080C0C000C0C0000080C0E9
:10075000C00000000000C0C0C0C0C000C0C0000099
:100760000000000000000000000000000000000089
:100770000000000000000000000000000000000079
:100780000000000000000000000000000000000069
:100790000000000000C0F0F8FC3E1E060100000052
:1007A0007F4141417F007F4141417F000080C0E0A7
:1007B0007E5B4F5BFEC00000C000DCD7DEDEDED714
:1007C000DC00C0000000000000000000000000008D
:1007D000000000000000000000000000494949FF3F
:1007E000FFFFFFE0DFBFBF00BFBFDFE0FFFFFFFF96
:1007F00049494900000000001F3F6060E0BF1F0042
:100800007F7F071E381E077F7F007F7F0E1F3B7193
:100810006000000000007F7F0C0C0C007E7E007FDB
:100820007E0303007F7E03037E7E03037F7E000F33
:100830003E703C063C703E0F00327B49493F7E00D3
:100840007F7E0303001E3F69696F260000000000E1
:100850000000000000030F1F3F3C787060000000A4
:100860007F4141417F007F4141417F00307B7F7864
:1008700030202030787F3B0003000F7F0F0F0F7F69
:100880000F00030000000000000000000000000056
:10089000000000000000000000000000010101074E
:1008A0000F0F7F0F7F0F0F7E0F0F7F0F7F0F0F0731
:1008B0000101010000000000000000000001010033
:1008C0000000000000000000000000000000000028
:1008D0000000000000000000000000000000000018
:1008E0000000000000000000000000000000000008
:1008F00000000000000000000000000000000000F8
:1009000000000000000000000000000000000000E7
:1009100000000000000000000000000000000000D7
:1009200000000000000000000000000000000000C7
:1009300000000000000000000000000000000000B7
:1009400000000000000000000000000000000000A7
:1009500000000000000000AF00AE4350534C4B00BD
:100960000A0A00556E646566004C6F776572005226
:100970006169736500426173650A004C41594552D3
:10098000000A0A004D6F640A00436C6D6B005177DA
:100990007274000A0A008081828384858687888930
:1009A0008A8B8C8D8E8F9091929394A0A1A2A3A4F8
:1009B000A5A6A7A8A9AAABACADAEAFB0B1B2B3B46F
:1009C000C0C1C2C3C4C5C6C7C8C9CACBCCCDCECFAF
:1009D000D0D1D2D3D40005010902A10185020901B9
:1009E000A1000509190129081500250195087501BF
:1009F00081020501093009311581257F95027508AD
:100A0000810609381581257F950175088106050C39
:100A10000A38021581257F950175088106C0C00539
:100A2000010980A101850319012AB700150126B724
:100A300000950175108100C0050C0901A101850414
:100A400019012AA002150126A00295017510810046
:100A5000C005010906A1018506050719E029E7156A
:100A60000025019508750181020507190029EF1578
:100A700000250195F07501810205081901290595E8
:100A80000575019102950175039101C005010906E3
:100A9000A101050719E029E7150025019508750151
:100AA00081029501750881010507190029FF1500CC
:100AB00026FF00950675088100050819012905150E
:100AC000002501950575019102950175039101C0FD
:100AD00009023B00020100A0FA0904000001030121
:100AE00001000921110100012244000705810308CA
:100AF00000010904010001030000000921110100A7
:100B00000122B60007058203200001120100020045
:100B100000000832FC87020100010200010C0353AF
:100B2000006F0066006C00650000001A034A006F49
:100B3000007300650066004100640061006D0063A1
:100B40000069006B000000040309040011241FBEAB
:100B5000CFEFDAE0DEBFCDBF11E0A0E0B1E0EAE721
:100B6000F3E502C005900D92AE3AB107D9F725E042
:100B7000AEEAB1E001C01D92A434B207E1F70E94D1
:100B80006A210C947C290C940000482F2091400588
:100B90009091070557E0291302C080E0089530E0E6
:100BA000529FF001539FF00D1124E85FFA4F8181AD
:100BB000681306C08081481303C085818111EECF80
:100BC0002F5F3F4F2770E7CFE8EDF0E080818E7F09
:100BD00080831092E2001092DA001092E100A0EE01
:100BE000B0E08C9181608C9380818F77808319BC79
:100BF000A7EDB0E08C918E7F8C9380818F7E808377
:100C00001092F20408952091E4003091E50095E6F9
:100C1000A9012091EC00822F817020FF06C08091F5
:100C2000E80080FF06C080E008952091E80022FDE2
:100C30001AC08091FD04882389F0853089F0809165
:100C4000EB0085FD0FC02091E4003091E5004217D4
:100C50005307F9F29150E1F684E0089582E0089597
:100C600083E0089581E008958091FF0487FF13C019
:100C70008091E80082FF06C08091E8008B77809326
:100C8000E80004C08091FD048111F2CF08958091A5
:100C9000FD048823D9F38091E80080FFF8CF80918C
:100CA000E8008E77ECCF982F9093E900242F762FD1
:100CB00050E0891731F07091EC002091ED005091D7
:100CC000F00021FD07C09F5F973071F78093E90026
:100CD00081E008953091EB003E7F3093EB0030913E
:100CE000ED003D7F3093ED003091EB0031603093AB
:100CF000EB007093EC002093ED005093F0002091F6
:100D0000EE0027FDE0CF80E00895B0E0A0E0EBE842
:100D1000F6E00C94B828C8EDD0E088818F7E8883F7
:100D2000E7EDF0E080818160808384E082BF81E034
:100D30008093F20488818E7F888302EE10E0F801B0
:100D400010821092DA0081EEC82ED12CF6011082AA
:100D500088818F77888388818068888388818F7D68
:100D6000888319BC1092FD041092FE041092FC04BA
:100D70001092FB0490EEE92EF12CF70180818B7F1D
:100D8000808388818160888342E060E080E00E9407
:100D90005306F60180818E7F8083F8018081816017
:100DA0008083808188608083F70180818E7F80834B
:100DB000888180618883CDB7DEB7E8E00C94D428C1
:100DC000FC01809105059091060586179707A0F014
:100DD0006115710529F49091E8009E779093E800E1
:100DE00090E06115710551F4911108C08091E800FF
:100DF00082FF34C080E00895BC01F2CF8091FD04F1
:100E00008823C1F18530C1F18091E80083FD30C0B5
:100E10008091E80082FDEACF8091E80080FFE1CF79
:100E20008091F3002091F200382F6115710519F0BF
:100E30002830310558F091E02830310509F090E074
:100E40002091E8002E772093E800CBCF819180930A
:100E5000F100615071092F5F3F4FE7CF8091FD0492
:100E6000882341F0853041F08091E80083FFBECFB8
:100E700081E0089582E0089583E0089587E797E789
:100E8000909301088093000888E19AE00FB6F894E7
:100E9000A895809360000FBE90936000FFCF2FB79E
:100EA000F8946091EE047091EF048091F0049091B9
:100EB000F1042FBF089580914D01089590914E0146
:100EC0009130D1F49091EB0497FF16C0E82FE6958E
:100ED000E695E695EE31E0F4F0E0E854FE4F282F79
:100EE000277081E090E001C0880F2A95EAF780958D
:100EF0009281892382830895E2EBF1E09191891335
:100F000003C0DF0111971C9291E0E83BF907B1F7AC
:100F1000089590914E019130C1F49091EB0497FFA8
:100F200014C0E82FE695E695E695EE31F8F4F0E08A
:100F3000E854FE4F877021E030E001C0220F8A950F
:100F4000EAF78281822B82830895A2EBB1E0EFEF72
:100F500090E02D91821751F0EF3F19F4211101C05B
:100F6000E92F9F5F9630A9F7EF3F09F408950E2E01
:100F7000000CFF0BE055FE4FE6CFA3E0B0E0E3EC42
:100F8000F7E00C94BE282091E9043091EA04281778
:100F90003907A1F09093EA048093E904E091E70413
:100FA000F091E804309751F024E029839B838A83F1
:100FB0000084F185E02DCE01019609952396E2E0AB
:100FC0000C94DA28A3E0B0E0E8EEF7E00C94BE2839
:100FD0002091E5043091E60428173907A1F0909399
:100FE000E6048093E504E091E704F091E80430978B
:100FF00051F023E029839B838A830084F185E02DCF
:10100000CE01019609952396E2E00C94DA288091AE
:10101000E304882359F0E091E704F091E804309765
:1010200029F00190F081E02D0995089580E0089560
:101030008091D80480FD16C081FD16C082FD16C0C7
:101040008091D7048823A1F0883280F428E0829F21
:10105000C001112468E270E00E94F128862F672BFE
:1010600039F0089582E0089584E0089588E00895B5
:1010700081E008958091D80480FD14C081FD14C0E2
:1010800082FD16C08091D604882381F08E3180F4D1
:1010900020E5829FC00111246EE170E00E94F128DA
:1010A000862F089584E1089588E2089588E00895E0
:1010B00080E50895282F35EB2303C001112497FF05
:1010C00004C080589109892F089580589F4FFBCF05
:1010D000FC01680F791F8FEF91E32191822728E0AF
:1010E00030E087FF09C0880F892721503109C9F7EF
:1010F000E617F70791F70895880FF7CF90E066237A
:10110000A1F0855B9E4FFC0120812F3F89F0E22FEB
:10111000E295EF70F0E080A190E02F7002C095950D
:1011200087952A95E2F781700895865B9E4FEBCFF5
:1011300080E0089590E06623E9F0855B9E4FFC0116
:1011400080818F3FB1F0E82FE295EF70F0E041A190
:101150008F7021E030E0B90102C0660F771F8A95D9
:10116000E2F7CB01962F9095942391A392A1892B1E
:1011700082A30895865B9E4FE2CF9091D004E92F21
:10118000F0E04091D1049F012F5F3F4F2370332740
:1011900042171306A9F0EE52FB4F282F2F778081BC
:1011A0008078822B60FB87F980839F5F9370909398
:1011B000D0048091CE048F5F8093CE0481E00895A7
:1011C00080E0089580E0089581E08093950208957D
:1011D000F894E82FE295EF70F0E031A1282F2F70FE
:1011E00081E090E001C0880F2A95EAF7982F90954A
:1011F000932391A392A1892B82A3789408950F93AE
:101200001F938091E304882329F00E944F071F91C8
:101210000F9108950E944F07009168021091690292
:1012200020916A0230916B02600F711F821F931F21
:10123000EECF9091EB0492FF10C041E0282F247173
:10124000243009F040E031E0282F2871283009F0DF
:1012500030E0431711F02CE0822793FF10C041E0EB
:10126000282F2471243109F040E031E0282F287123
:10127000283109F030E0431711F02CE0822730913B
:10128000EC0430FF10C051E0282F2171213009F00B
:1012900050E041E0282F2871283009F040E0541731
:1012A00011F029E0822731FF10C041E0282F217181
:1012B000213109F040E031E0282F2871283109F070
:1012C00030E0431711F029E0822794FD877E0895CE
:1012D00082389105B9F1B0F48133910509F47DC0EC
:1012E00048F48932910509F46DC08A32910509F4F8
:1012F0007BC008958533910509F45FC0893391055A
:1013000009F10895833E9105D9F138F4803E9105A5
:1013100029F1823E910579F10895863E9105D9F132
:10132000873E910509F43EC0843E910541F5209128
:10133000EC0421FF24C08091EB0484FD19C087EEEA
:1013400090E008952091EB04237009F05AC0209199
:10135000EC0423FF14C089E290E008952091EB048F
:1013600020FD38C03091EC0430FF09C024FF43C099
:1013700090E080E008952091EB0422FDF7CF0895DE
:101380002091EB0422FD3AC03091EC0430FD39C0CD
:1013900024FFF5CFEDCF2091EB0423FFF0CF24FD08
:1013A000E7CFCDCF2091EB0423FD2EC03091EC048C
:1013B00031FFEECF84EE90E008952091EB0425FFFD
:1013C000DECFC9CF2091EB0425FD21C02091EC0494
:1013D00023FFD5CF89E390E0D2CF2091EB0426FF05
:1013E000CECF8AE290E008952091EB0426FFC7CF8C
:1013F00081E390E0089583EE90E0089582EE90E01E
:10140000089580EE90E0089586EE90E0089585E3DB
:1014100090E00895972F7A30B8F46630A8F48730BA
:10142000B0F470E026E0929F600D711D1124FB0165
:101430009CE3899FE00DF11D1124EE0FFF1FE45581
:10144000FF4F85919491089580E090E0089581E0A8
:10145000FCCF1F93CF93DF930E946809EC01C11565
:1014600080E5D807F0F5C11580E4D80708F09CC0E6
:10147000C03ED10520F5CD3CD10508F082C0C83A68
:10148000D10578F4C53AD10508F073C0C130D10553
:1014900019F1209709F1C430D105F0F4D0E0C0E093
:1014A0001BC0C33CD105D0F7C85AD0E0CC0FDD1F1C
:1014B000CD5ADE4F0990D881C02DD4640DC0C1151E
:1014C00080E2D80708F0D1C0C11581E0D80708F044
:1014D0005AC0C83ED10510F7CE01DF91CF911F91C0
:1014E0000895C03682E5D80718F5C03482E5D807DC
:1014F00008F06BC0C03282E5D80708F05FC0C115A4
:1015000082E5D80708F497C02C2F2695269580E20F
:10151000289F900111248C2F8370C1E0D0E002C07D
:10152000CC0FDD1F8A95E2F7C22BD32BDD68D4CF19
:10153000C03A82E5D80760F4C03882E5D80708F4DD
:1015400059C0CF71D0E0DC2FCC27C46FD06AC4CF94
:10155000C03C82E5D80708F462C0C03E82E5D807E7
:1015600008F09CCFDC2FCC27CC27DF71C06FD06A6E
:10157000B3CFC55AD0E0C05BDE4FC881D0E0D064A5
:10158000ABCFD065A9CF8D2F0E941909182FCE019E
:1015900099270E946809C12FD0E0DC2FCC27CC27E7
:1015A000DF71C82BD92B98CFCE0199270E946809EB
:1015B000CC27DF70C82BD92BD06A8ECFCF71D0E06B
:1015C000DC2FCC27C16FD06A87CF2C2F269526958C
:1015D000277080E2289F900111248C2F8370C1E036
:1015E000D0E002C0CC0FDD1F8A95E2F7C22BD32BCF
:1015F000DC6872CF2C2F26952695277080E2289FD5
:10160000900111248C2F8370C1E0D0E002C0CC0F78
:10161000DD1F8A95E2F7C22BD32BDA685DCF8C2FC2
:101620008F710E941909C82FD0E0DC2FCC27CC275E
:10163000DF71D06251CF8C2F8F710E94190955E054
:10164000D695C7955A95E1F7CF70D0E0DC2FCC271F
:10165000282F30E084FF05C044E0220F331F4A9555
:10166000E1F7C22BD32BD06937CF8D2F8F710E941A
:101670001909182FCE0199270E946809C12FD0E0BF
:10168000DC2FCC27CC27DF71C82BD92BD2CF80956C
:1016900090912C02982390932C02089580912C0213
:1016A00090910302892B90910202992391F0892B4A
:1016B00090914E01913071F49091EB0497FF0AC024
:1016C0009EE12AEB31E040E0915040F4411110924C
:1016D0000202089596E022EB31E0F5CFF901519135
:1016E0009F01552389F34F5FEFCF80914005909183
:1016F0000705981301C008958F5F8770FACFB0E097
:10170000A0E0E5E8FBE00C94B7287C010091A00282
:101710001091A1028091780290917902082B192BE7
:10172000CFE0D0E0CC24C394D12CBC2EC6010C2E2B
:1017300002C0880F991F0A94E2F780239123892B16
:1017400049F4219790F7B12C8B2DCDB7DEB7E9E0A6
:101750000C94D328B7018C2F0E940A0A0E94290AF0
:10176000019779F3F1CFCF93DF93EC010E947F0BC8
:10177000BE010E940A0A0E94290ADF91CF910895B2
:101780009A3078F5863068F5E82FF0E086E0989F8B
:10179000E00DF11D11249E2F977083E0F695E795DB
:1017A0008A95E1F7EE0FFF1FEE0FFF1FE652FE4F87
:1017B00050E040E080E0219130E0092E02C03695F3
:1017C00027950A94E2F721703327042E01C0220FD7
:1017D0000A94EAF7822B4F5F5F4F4430510559F767
:1017E000089580E008959A3098F5863088F5E82FBE
:1017F000F0E086E0989FE00DF11D11248E2F877098
:1018000041E001C0440F8A95EAF783E0F695E79539
:101810008A95E1F7EE0FFF1FEE0FFF1FE652FE4F16
:1018200030E020E070E05191DF011197CB01022EF2
:1018300002C0969587950A94E2F781708195852775
:10184000842385278C932F5F3F4F2430310559F730
:1018500008959093A1028093A002089521E030E0C2
:1018600002C0220F331F8A95E2F7209530958091B0
:10187000A0029091A102822393230E94290C089533
:10188000909101028095892380930102282F27706F
:1018900069F4891759F09091EC0492FF07C086957E
:1018A000869586950E942E0C10920102089521E0E3
:1018B00030E002C0220F331F8A95E2F78091A00228
:1018C0009091A102822B932B0E94290C0895909352
:1018D0007902809378020895FC0124812223C1F0CB
:1018E000808191810E94B30B92959F70963091F008
:1018F00058F4925F9F70923058F4803F19F030F4A2
:10190000883E30F481E008959A5FF4CF843FD1F3AC
:1019100080E00895883EB0F3813FD1F7F3CF292FBF
:10192000332740E02115310511F0C90148E09C0141
:1019300064E0369527956A95E1F72115310511F098
:101940004C5FC9019C013695279536952795211541
:10195000310511F04E5FC90196958795892B09F0E5
:101960004F5F842F0895A6E0B0E0E9EBFCE00C9413
:10197000BD2849835A8349815A819923A1F02223A2
:1019800091F0CA010E947F0B182F682F89819A81DC
:101990000E94F30B69817A81812F0E940A0A2696A0
:1019A000E3E00C94D928CA010E94C00B182FF2CF93
:1019B0000F931F93CF93DF938B01EA019091FD0466
:1019C000943061F58093E9008FEF9091E8008150A9
:1019D00095FD06C095ED9A95F1F700008111F5CFC0
:1019E0008091E80085FF1AC00E940306811111C092
:1019F0008091E80085FD06C08091E8008E77809395
:101A0000E800F2CFF80181918F018093F1002197D6
:101A100079F78091E8008E778093E800DF91CF918D
:101A20001F910F91089543E050E0BC0182E00E94B5
:101A3000D80C089546E050E0BC0182E00E94D80C2A
:101A4000089540E250E0BC0182E00E94D80C089565
:101A5000CF93DF93EC0148E050E0BC0181E00E94AD
:101A6000D80C88E0FE01A3EFB4E001900D928A95B6
:101A7000E1F7DF91CF910895B0E0A0E0E2E4FDE06E
:101A80000C94B6287C015B016A018091670201E039
:101A900010E08A3010F40AE010E0C1E0D0E0B501B7
:101AA000C701F6010995811104C021960C171D0785
:101AB0002CF4CDB7DEB7EAE00C94D228CC9F90018D
:101AC000CD9F300D300D112490E080E045E34A9524
:101AD000F1F70000019682179307C1F7E0CF8091DC
:101AE0004E01813059F58091EB0487FF27C00E9499
:101AF0004E0B8093B90140E250E064E072E088EB65
:101B000091E00E941429892BC1F080E2E8EBF1E01A
:101B1000A4E0B2E001900D928A95E1F7E091E7042C
:101B2000F091E804309749F086E08093B801048092
:101B3000F581E02D88EB91E0099508950E944E0B08
:101B40008093B00148E050E064E272E080EB91E005
:101B50000E941429892B89F388E0E0EBF1E0A4E2EC
:101B6000B2E001900D928A95E1F7E091E704F091DF
:101B7000E804309711F30280F381E02D80EB91E0CF
:101B8000DBCF882321F00E94470B0E946F0D089540
:101B9000882339F090912C02982B90932C020E946C
:101BA0006F0D08951F93CF93DF93162F8A3039F46A
:101BB00081E00E94750EDF91CF911F9108958D30C5
:101BC00011F480E0F6CFC0919D02D0919E0296E084
:101BD000FE01A7E9B2E001900D929A95E1F7803EEF
:101BE00090F186E0FE0111928A95E9F7C0919D027D
:101BF000D0919E02111133C046E050E0BE0187E94A
:101C000092E00E9414299E01225C3240892B91F5BA
:101C10002A5F3F4F40919F02642F70E0C9010E94EC
:101C20009A28481B463010F4240F311D211572E00C
:101C3000370710F030E020E02E533D4F30939E02E6
:101C400020939D02B8CFF6E08F9FB00111246A5E09
:101C50007B4F46E050E0CE010E940B29C7CF9E018A
:101C60002A5F3F4FFE012E173F0731F2808180959A
:101C70008193F9CFC90145E0969587954A95E1F79B
:101C800041E050E0BA0102C0660F771F8A95E2F783
:101C9000CB016091C4047091C504862B972BB901C8
:101CA0006B5F7F4FE5E076956795EA95E1F702C0B7
:101CB000440F551F6A95E2F7842B952B9093C5042A
:101CC0008093C404A5CF1F93CF93DF93EC01162F0D
:101CD000FE018491811104C0DF91CF911F9108957D
:101CE000612F0E94D20D2196F3CFCF93382FE09130
:101CF0009D02F0919E02E25CF24020919F02622FD1
:101D000070E0CF010E949A28281B822F332369F0AC
:101D100066E00E94E528C82FC15010F4CF910895C5
:101D200060E080E20E94D20DF7CF9F01280F311DA5
:101D30002115324018F080E0F0E0E0E08E0F9F2F98
:101D4000911D8E539D4F90939E0280939D02E6CFEE
:101D50000E94630E81E00E94750E0895AB0124E697
:101D600030E0BC0188E70E944E2621E0892B09F073
:101D700020E0822F08958091CA049091CD049111A2
:101D800003C091E089270895882369F062E070E03C
:101D900088E599E00E94AE0E811103C08091CA04CB
:101DA00008951092CA048091CA04EBCFCF93C091DA
:101DB000CA048091CD048823D1F00E944F07605A55
:101DC00075418F4F9F4F6093C6047093C7048093F3
:101DD000C8049093C904C11108C062E070E086E5B0
:101DE00099E00E94AE0E811105C0C091CA048C2FEB
:101DF000CF91089581E08093CA04F7CF9091EC04CD
:101E000092FB222720F9281779F080FB92F9909312
:101E1000EC046091EB047091EC0484E090E00E948B
:101E2000662982E00E94400C0895A4E0B0E0EBE156
:101E3000FFE00C94BD2840916302509164026091D0
:101E40006502709166022FB7F8948091EE0490912C
:101E5000EF04A091F004B091F1042FBF841B950B07
:101E6000A60BB70B11E084369105A105B10570F101
:101E70000E94FF086E5F7F4F8F4F9F4F69837A8369
:101E80008B839C838091310190913201855B9D4FC2
:101E90004091300150E04530510510F044E050E0F1
:101EA000BE016F5F7F4F0E94212986E090E00E9473
:101EB0002428182F882351F00E944F076093630253
:101EC000709364028093650290936602812F24963A
:101ED000E3E00C94D9280F931F93CF93DF93EC0189
:101EE00045E050E061E572E00E9414290091420251
:101EF000109143022091440230914502EFB7F894CB
:101F00004091EE045091EF046091F0047091F1045F
:101F1000EFBF401B510B620B730B4436510561053B
:101F2000710510F4892B41F18091110190911201FA
:101F3000855B9D4F4091100150E04630510510F0F7
:101F400045E050E0BE010E94212982E090E00E941D
:101F50002428C82F882351F00E944F076093420223
:101F60007093430280934402909345028C2FDF913B
:101F7000CF911F910F910895C1E0F8CF4F925F92DA
:101F80007F928F929F92AF92BF92CF92DF92EF9209
:101F9000FF920F931F93CF93DF930F92CDB7DEB7CE
:101FA000C62E4A015901482E880F5508C2010E94C9
:101FB0002428782E882309F480C0C20133E0880FDA
:101FC000991F3A95E1F7FC01E050FF4F438150E043
:101FD0004115510511F041E050E080509F4FFC0148
:101FE00064817581655B7D4FCE0101960E94212938
:101FF000F40140815181628173812FB7F8948091FF
:10200000EE049091EF04A091F004B091F1042FBF81
:10201000841B950BA60BB70B84369105A105B10562
:1020200040F4B701C8010E9468089981891709F432
:1020300044C00C2C000CDD08C6010E942428782E18
:10204000811113C0712C872D0F90DF91CF911F91BB
:102050000F91FF90EF90DF90CF90BF90AF909F9047
:102060008F907F905F904F900895C60123E0880F76
:10207000991F2A95E1F7FC01E050FF4F438150E0A2
:10208000E416F50608F4A70180509F4FFC01648117
:102090007581655B7D4FC5010E942129B701C8018B
:1020A0000E94680899818913CDCF0E944F07F401DF
:1020B0006083718382839383C6CFA701B801C50172
:1020C0000E942129C0CFA8E0B0E0E9E6F0E10C943D
:1020D000BA2888E0E82EF12C07E512E09E012F5F78
:1020E0003F4F47E452E064E083E00E94BE0F082FB8
:1020F000882389F19091560280914602981759F1F0
:1021000010E090915A02809159028917F1F0E92F5D
:10211000F0E0E15BFD4F848587FB662760F99F5FF8
:10212000937090935A02909158029F5F9093580237
:102130008F770E94BD08182F8111E3CF85E090E0D2
:102140000E942428012F082302C01111F7CF80918B
:10215000560280934602802F2896E6E00C94D628FB
:10216000A5E0B0E0E6EBF0E10C94B8286B0185E067
:10217000E82EF12C0CE412E09E012F5F3F4F4EE35E
:1021800052E061E080E00E94BE0F882349F095E0B4
:10219000FE013196A9E3B2E001900D929A95E1F724
:1021A00095E0E9E3F2E0D60101900D929A95E1F70E
:1021B0002596E8E00C94D4281F920F920FB60F9248
:1021C00011242F933F934F935F936F937F938F933C
:1021D0009F93AF93BF93EF93FF938091E10082FFB2
:1021E00009C08091E20082FF05C08091E1008B7FF1
:1021F0008093E1008091DA0080FF24C08091D800B4
:1022000080FF20C08091DA008E7F8093DA00809179
:10221000D90080FFAAC080E189BD82E189BD09B4EF
:1022200000FEFDCF81E08093FD048091F2048111D6
:1022300009C00E94E4050E9485068091E200846046
:102240008093E2008091E10080FF1AC08091E2005B
:1022500080FF16C08091E2008E7F8093E200809123
:10226000E20080618093E2008091D80080628093D8
:10227000D80019BC85E08093FD0483E080934F0172
:102280008091E10084FF30C08091E20084FF2CC087
:1022900080E189BD82E189BD99B5892F817090FF68
:1022A000FBCF9091D8009F7D9093D8009091E10052
:1022B0009F7E9093E1009091E2009F7E9093E200D8
:1022C0009091E20091609093E2009091FE04992336
:1022D00009F451C094E09093FD049091FD04943072
:1022E00009F482E080934F018091E10083FF2CC0CC
:1022F0008091E20083FF28C08091E100877F809376
:10230000E10082E08093FD041092FE048091E100E0
:102310008E7F8093E1008091E2008E7F8093E200C7
:102320008091E20080618093E20042E060E080E022
:102330000E9453068091F00088608093F00081E055
:1023400080934F0180934E01FF91EF91BF91AF9128
:102350009F918F917F916F915F914F913F912F91BD
:102360000F900FBE0F901F90189519BC1092FD048E
:102370001092F20467CF9091E30097FD02C0982F6E
:10238000AACF93E0A8CF78941F921FB61F92112472
:102390008F939F93AF93BF938091EE049091EF043E
:1023A000A091F004B091F1040196A11DB11D80939C
:1023B000EE049093EF04A093F004B093F104BF9166
:1023C000AF919F918F911F901FBE1F9018959C01F8
:1023D0004FB7F8948091EE049091EF04A091F0042F
:1023E000B091F1044FBF821B930B08952FB7F8945F
:1023F0008091EE049091EF04A091F004B091F1046B
:102400002FBF08950E94F6119C019091DF048091E6
:10241000E004982B21F03093DC042093DB049091AE
:10242000E1048091E204982B21F03093DA042093A8
:10243000D904E091E704F091E804309749F082E094
:102440008093DD040680F781E02D8DED94E0099501
:10245000089510922C0280914E01813039F58091BF
:10246000EB0487FF23C0EAEBF1E08EE1DF011D9270
:102470008A95E9F790E080E00E94E20790E080E032
:102480000E94BD07109203020E946F0D86E0EDEDE1
:10249000F4E0DF011D928A95E9F71092D6041092BC
:1024A000D7041092D8040E9402120895E2EBF1E0E2
:1024B00086E0DCCFAAE2B0E0E0E6F2E10C94BD28D1
:1024C0008FEF94E02091F100FC012193CF01F5E022
:1024D00087309F07B9F780910005833009F470C0F9
:1024E000B8F4813009F447C0823009F4B5C0809156
:1024F000E80083FF89C28091FF04909100059A3023
:1025000008F082C2E92FF0E0E258F64D0C9405295C
:102510008A3009F490C08B3009F46FC0893039F7E4
:102520008091FF04813219F7809103059091040591
:102530000297E8F68091E800877F8093E800809119
:10254000E80082FF38C09091F3008091F20002977A
:1025500031F48091F100813011F0863021F48091C6
:10256000F10080934D018091E8008B778093E80023
:102570000E943406BCCF8091FF04813A09F0B7CFA6
:102580008091E800877F8093E80080910305909117
:102590000405892B61F468E083EF94E070E00E9409
:1025A000E0068091E8008B778093E800A0CF60E0A0
:1025B00090E080E0F3CF8091FD048111C0CF97CFF0
:1025C0008091FF04813A09F092CF809103059091A8
:1025D0000405892B09F08BCF8091E800877F8093D9
:1025E000E8008091E80080FFFCCF80914E0180934D
:1025F000F1008091E8008E77B9CF8091FF0481329D
:1026000009F075CF8091030590910405892B09F09D
:102610006ECF8091E800877F8093E8000E943406A7
:1026200081E090910105911101C080E080934E01FD
:102630000E9429125CCF8091FF04813209F057CFAC
:102640008091E800877F8093E8000E9434068091A3
:10265000020580934C014BCF8091FF04813A09F031
:1026600046CF8091E800877F8093E8008091E80062
:1026700080FFFCCF80914C01BACF803899F082382E
:1026800009F0C2C1809103058F70873008F0BCC18A
:102690008093E9008091EB0085FB882780F91092F8
:1026A000E90006C08091FB049091FC0491118260C6
:1026B0009091E800977F9093E8008093F10010924A
:1026C000F1008091E8008E779BC1882309F489C1CD
:1026D000823009F099C18091010581118CC18091EE
:1026E00003058F702FEF280F263008F08DC18093DF
:1026F000E9002091EB0020FF7EC1933031F48091FE
:10270000EB0080628093EB0076C19091EB009061CA
:102710009093EB0021E030E001C0220F8A95EAF7A8
:102720002093EA001092EA008091EB008860EACFE3
:1027300081116AC1109101051F778091E3008078B3
:10274000812B8093E3008091E800877F8093E800ED
:102750000E9434068091E80080FFFCCF8091E30066
:1027600080688093E30082E0111183E08093FD0490
:102770004BC18058823008F047C18091010590918B
:1027800002058C3D23E09207A1F583E08A838AE26B
:1027900089834FB7F894DE01139620E03EE051E2C2
:1027A000E32FF0E050935700E49120FF03C0E2953F
:1027B000EF703F5FEF708E2F90E0EA30C0F0C79669
:1027C0008D939D932F5F243159F74FBF8091E8007F
:1027D000877F8093E8006AE270E0CE0101960E9454
:1027E000E0068091E8008B778093E8000DC1C096E9
:1027F000E7CF4091030550910405292F332723305B
:10280000310509F444C078F52130310509F46FC071
:102810008BE390E0E0EDFAE02230310509F0F4C0FE
:102820002091E800277F2093E80020910505309152
:1028300006058217930708F49C0140E02115310535
:1028400009F064C0411162C08091E80082FDC9CFE7
:102850008091FD04882329F2853019F28091E800E7
:1028600083FFF2CFBECF21323105A9F122323105EB
:1028700009F0CAC04115510509F443C04130510562
:1028800009F0C2C086EB90E0E6EDF9E0C9CF9927E8
:1028900081309105C1F0009759F0029709F0B4C05A
:1028A000EDE1FBE0E4918E2F90E0EDE1FBE007C06D
:1028B000E7E4FBE0E4918E2F90E0E7E4FBE0009793
:1028C00009F4A2C0ADCFEBE2FBE0E4918E2F90E0E3
:1028D000EBE2FBE0F4CF4115510571F041305105B9
:1028E00009F092C089E090E0EBEFFAE099CF82E145
:1028F00090E0EBE0FBE094CF89E090E0E2EEFAE0DC
:102900008FCF84E490E0ECE8FAE08ACF8091FD0478
:10291000882309F466CF853009F463CF8091E800FD
:1029200083FD5FCF8091E80082FD8ECF8091E8002B
:1029300080FF84CF9091F3008091F2002115310542
:1029400019F08830910550F041E0089709F040E017
:102950008091E8008E778093E80070CF4491409397
:10296000F1003196215031090196E8CF803809F005
:102970004BC08091E800877F8093E8008091FE043F
:102980008093F1009ECE81113FC01091010512305D
:10299000D8F58091E800877F8093E8001093FE04CB
:1029A0000E943406112311F084E005C08091E300F9
:1029B00087FDFACF81E08093FD0442E061EC81E085
:1029C0000E94530642E261EC82E00E94530680912D
:1029D000FD04843021F081E080934F0115C082E036
:1029E000FBCF80910105813079F481E0933009F0CB
:1029F00080E08093FC041092E9008091E800877FDA
:102A00008093E8000E9434068091E80083FF0AC0AA
:102A10008091E800877F8093E8008091EB008062DE
:102A20008093EB00AA96E3E00C94D9281F920F92B2
:102A30000FB60F9211242F933F934F935F936F9391
:102A40007F938F939F93AF93BF93CF93DF93EF9336
:102A5000FF93D091E900DF708091EC00C82FC17026
:102A600080FDC0E81092E9008091F000877F80939C
:102A7000F00078940E945A121092E9008091F000C0
:102A800088608093F000CD2BCF70C093E900FF9158
:102A9000EF91DF91CF91BF91AF919F918F917F91F6
:102AA0006F915F914F913F912F910F900FBE0F90BB
:102AB0001F9018950E9429122FEF84E39CE021506B
:102AC00080409040E1F700C0000088E19AE00FB636
:102AD000F894A895809360000FBE90936000FFCF9C
:102AE000662309F45DC08D3C41F40E943A0881954B
:102AF0008093E0040E94021208958E3C19F40E9413
:102B00003A08F6CF8F3C31F40E943A0881958093C1
:102B1000DF04F0CF803D19F40E943A08F8CF893DD8
:102B200029F40E9418088093E104E4CF8A3D21F43F
:102B30000E9418088195F7CF8B3D31F40E94180848
:102B400081958093E204D6CF8C3D19F40E94180839
:102B5000F8CF9FE2980F983070F4815D990B21E0D7
:102B600030E001C0220F8A95EAF78091DE04822BC3
:102B70008093DE04BFCF8D3D31F48091D804816015
:102B80008093D804B7CF8E3D21F48091D804826021
:102B9000F7CF8F3D09F0AECF8091D8048460F0CF9D
:102BA0004091DF048D3C59F48091E00487FF0DC013
:102BB0001092E00441110BC01092D60408C08E3C64
:102BC00081F48091E00418169CF3442381F08091F5
:102BD000E1049091E204892B09F08CCF1092D70484
:102BE00089CF8F3C49F447FFF0CF1092DF048091EA
:102BF000E0048111ECCFE0CF803D19F41416ACF362
:102C0000E4CF9091E104893D29F41916F4F610926D
:102C1000E104DBCF8A3D19F497FFD7CFF8CF90912D
:102C2000E2048B3D29F497FFD0CF1092E204CDCF80
:102C30008C3D19F41916CCF3C8CF9FE2980F983049
:102C400090F4815D990B21E030E0B90102C0660F7C
:102C5000771F8A95E2F7CB0180959091DE04892356
:102C60008093DE04B2CF8D3D31F48091D8048E7F05
:102C70008093D804AACF8E3D21F48091D8048D7F13
:102C8000F7CF8F3D09F0A1CF8091D8048B7FF0CF93
:102C9000882381F19CEF980F913A28F40E945E07F7
:102CA0000E946F0D089590E2980F983050F487704D
:102CB00091E001C0990F8A95EAF7892F0E94470B8E
:102CC000EFCF9BE5980F933028F490E080E00E94CE
:102CD000E207089598E5980F9B3128F490E080E092
:102CE0000E94BD07089593E3980F933118F460E0B4
:102CF0000E9470150895CF93C82F8823B9F18CEFE7
:102D00008C0F813AA8F580914E01813001F58091B8
:102D1000EB0487FF1CC0EC2FE695E695E695F0E006
:102D2000E854FE4F828190E04C2F477021E030E064
:102D300002C0220F331F4A95E2F782239323892B87
:102D400081F08C2F0E945E070E946F0D0AC0E2EB9B
:102D5000F1E088EB91E02191C21799F38E179F075C
:102D6000D1F78C2F0E9489070E946F0DCF91089593
:102D700080E28C0F883068F4C77021E030E001C039
:102D8000220FCA95EAF780912C02822B80932C02A5
:102D9000EBCFEBE5EC0FE33040F4F0E0E05BFE4F0F
:102DA000808190E00E94E207E1CFE8E5EC0FEB3193
:102DB00050F4F0E0EE0FFF1FED5AFE4F808191813D
:102DC0000E94BD07D3CF83E38C0F833178F661E097
:102DD0008C2F0E947015CACF1F93CF93DF93182FAB
:102DE000EB010E947B168FE99FE00197F1F700C08D
:102DF00000002197C1F7812F0E944816DF91CF91E3
:102E00001F9108950F931F93CF93DF93C62FD42F55
:102E1000022FFC0185818823A9F0609343050E945D
:102E2000F6119093420580934105C77081E001C07F
:102E3000880FCA95EAF70E94C80DDF91CF911F91C4
:102E40000F91089580914305681334C08091410526
:102E5000909142050E94E711883C910558F510E2D7
:102E60001D0FCD17B9F080E28C0F883040F4C77089
:102E700081E001C0880FCA95EAF70E94C10D1830A1
:102E800048F481E09D2F977001C0880F9A95EAF76A
:102E90000E94C80D6AE070E0802F0E94EC16183086
:102EA00060F6D77081E001C0880FDA95EAF70E94DA
:102EB000C10DC3CFC77081E001C0880FCA95EAF782
:102EC000F6CF80E09091D1042091D004291739F1F8
:102ED000E92FF0E0EE52FB4F808187FB222720F99B
:102EE0008F779F5F93709093D1049091CF049F5FF1
:102EF0009093CF04882349F0813079F46AE070E040
:102F00008EE4211108C08BE406C06AE070E089EA13
:102F1000211101C08AEA0E94EC1681E0D3CF089506
:102F2000B0E0A0E0E6E9F7E10C94B6288C01FC01E2
:102F30008481882341F121E0408151816281738144
:102F400095810E94B30CEC01FC01E851FC47E7308D
:102F5000F105A8F5E857F64D0C94052926E241EE57
:102F600061EEC8010E94021780910102877059F03A
:102F7000F8018581882339F08091EC0482FF03C039
:102F800082E00E94400CCDB7DEB7EAE00C94D22874
:102F900027E245EE65EEE5CF26E241EE60EEE1CFB9
:102FA00027E245EE64EEDDCF26E241EE62EED9CFB8
:102FB00027E245EE66EED5CF28E241E0EBCFF801FF
:102FC0008581882309F4BAC3109243059E013057C6
:102FD0002332310508F09DC384E090E00E9432293D
:102FE0009093EC048093EB04FE01E150F047E23251
:102FF000F10520F4E157F64D0C9405298091EB047E
:1030000081608093EB0495C08091EC04886080938C
:10301000EC048FC08091EB048260F3CF8091EB04CD
:103020008460EFCF8091EB048860EBCF8091EC045B
:103030008160EDCF8091EC048260E9CF8091EB0458
:103040008061DFCF8091EB048062DBCF8091EB0465
:103050008064D7CF0E9429128091EB048068D1CF81
:103060008091EB048C60CDCF8091EC048360CFCF56
:103070008091EB048E7FC5CF8091EC04877FC7CF12
:103080008091EB048D7FBDCF8091EB048B7FB9CF16
:103090008091EB04877FB5CF8091EC048E7FB7CF12
:1030A0008091EC048D7FB3CF8091EB048F7EA9CF0C
:1030B0008091EB048F7DA5CF8091EB048F7BA1CF16
:1030C0000E9429128091EB048F779BCF8091EB04B3
:1030D000837F97CF8091EC048C7F99CF8091EB0414
:1030E00082FB992790F921E0922790FB82F990FBCF
:1030F00083F987CF8091EC04982F909591708E7F03
:10310000892B90FB81F983CF9091EB04892F8F7BE2
:1031100096FF806476CF0E9429129091EB04892F4C
:1031200097FB87F980586DCF61E08EE090E00E94B8
:1031300048296091EB047091EC0484E090E00E94D7
:1031400066290E94291210CF60E0EFCF9091EB0426
:10315000892F8F7E94FF806154CF9091EB04892F4B
:103160008E7F90FF81604DCF9091EC04892F877FF7
:1031700093FF88604CCF85E3DCC285E3E9C29E0102
:10318000205E324520323105A8F4811115C0CF717F
:1031900081E090E09C0102C0220F331FCA95E2F744
:1031A000E901622F83E090E00E944829CE010E944D
:1031B000670CDACE882381F0C3303CE7D30709F4EB
:1031C00078C008F05BC0C1159CE7D90709F464C05A
:1031D000C130DC4709F473C0F8018581C081D18119
:1031E000882309F47AC0CE010E947F0BF82E682F45
:1031F000CE010E94F30BBE018F2D0E940A0A0E948D
:10320000290AD82FC92FA82EF801C580B680B294FC
:103210003FE0B32280910102877009F1EC2CCC20B1
:10322000F9F0892F807F803469F080E28D0F88303B
:10323000B0F0892F807E803229F4F1E0FD1778F418
:10324000BB2069F08091EC0482FF09C082E00E94FB
:10325000400C809101028770EE24E3948111E12CEF
:10326000DC2ED2942FE0D2222BE02D1508F49AC048
:10327000ED2DF0E0EF54F64D0C940529CB35FCE72D
:10328000DF0749F1CC352CE7D207D9F0CA35DC4746
:1032900009F0A2CF81E01CC00E9429128FEF94E3B5
:1032A000ECE081509040E040E1F700C000000E9457
:1032B0003E076FEF7FEF90E080E00E9466290E945A
:1032C0005A158091EC0482FB882780F991E08927C8
:1032D0000E94FE0E81CF80E0FBCFCE010E94C00B8A
:1032E000F82E89CF3C2F3F70F32EC07F19F0F29457
:1032F00090EFF922CC20B9F0FF2069F080E28D0F29
:10330000883010F0A11009C080912C02F82AF092A8
:103310002C020E946F0D8D2F43C080910302F82A6A
:10332000F0920302F6CF8D2F0E944816FF20D1F1B4
:10333000D05ED83010F0A11004C08F2D0E94470B32
:1033400006C0F09480910302F822F09203020E94DA
:103350006F0D28C08C2F8F70F82EC07FC03219F0EF
:10336000F29480EFF822AA2059F091E0A91609F40E
:1033700079C0CC2009F485C0BB2009F447C0CBCF6D
:103380008091EC0482FD3EC0CC20B1F1FF2039F0E9
:1033900080912C02F82AF0922C020E946F0D80E09E
:1033A0000E947B162D2D2850330B2430310510F44C
:1033B0000E940708EE20A9F08091010280FD11C053
:1033C000F80115828695869586950E94570CC8014E
:1033D0000E949017809101028695869586950E949D
:1033E0002E0C20E0F801408151816281738184813B
:1033F00095810E94B30CC7CD80E00E944816FF2043
:1034000089F29BCFCC20A1F0B11004C08F2D0E9477
:10341000C80DC8CFE1E0BE12C5CF809102029F2D3A
:103420009823F91609F4BECFF82AF0920202BACF17
:10343000B110B8CF8F2D0E94C10D909102028F2D37
:10344000892329F08F2D8095892380930202809112
:10345000D9019F2D982309F4A5CFF094F822F0927A
:10346000D901A0CFCC2029F0F5E0FB1508F49ACFC4
:10347000CDCF24E02B1508F495CF8F2D0E94C10DE0
:1034800091CFBB20D1F339E3A3120DC08FEF97EE9C
:10349000E3E081509040E040E1F700C000008D2F54
:1034A0000E9448167FCF8FE39CE90197F1F7F5CF93
:1034B0008C2F86958695837069F0813009F072CFE4
:1034C0008D2F9C2F9370C11002C080E090E00E946D
:1034D000BD0768CF8D2F9C2F9370C11002C080E074
:1034E00090E00E94E2075ECF6C2D8D2F0E94701538
:1034F00059CF8C2F837009F03FC0C11053CF4D2F8F
:10350000429546954770440F440F2D2F2F7030E0A1
:10351000042E02C0220F331F0A94E2F790E080E0ED
:10352000D4FF09C08FE090E002C0880F991F4A9530
:10353000E2F780959095C695C695C370C23099F014
:1035400078F44091780250917902C13039F0822BA1
:10355000932B842395230E94670C24CF242B352B97
:10356000822B932BF8CF822B932B209178023091D2
:10357000790282279327EFCF8695CC2011F08C2FEC
:103580008170882309F40ECF4D2F429546954770E0
:10359000440F440F2D2F2F7030E0042E02C0220F55
:1035A000331F0A94E2F790E080E0D4FF09C08FE077
:1035B00090E002C0880F991F4A95E2F78095909598
:1035C000C695C695C370C23099F078F44091A002B8
:1035D0005091A102C13039F0822B932B8423952383
:1035E0000E94290CDFCE242B352B822B932BF8CF76
:1035F000822B932B2091A0023091A1028227932746
:10360000EFCFCF70CC2029F08C2F0E94570C8D2F3C
:10361000FECE8D2F0E94C10D8C2F0E942E0CC2CE8B
:103620008D2F92EFA91699F19A1570F0E0EFAE1672
:10363000D1F0F1EFAF1691F0CC2009F456C0B110E3
:103640006ACE8C2F8F7127C023EFA21639F134EF89
:10365000A312F2CF9091EC0492FD2EC08C2F8F71AB
:10366000CC20D9F218C0CC2069F084E08B1508F486
:1036700099CECF7181E090E002C0880F991FCA9562
:10368000E2F7B8CF95E09B1508F48CCEF2CF8C2FE3
:103690008F71C110C2CF0E94570C84CE90E080E0A1
:1036A000CC2009F49DCFCF7181E090E002C0880F5B
:1036B000991FCA95E2F794CFCC2061F08C2F8F71BF
:1036C00092FFE9CFE8E08E9F9001112423602093C0
:1036D0000102E1CF81E00E94400CF1E0FB1508F00F
:1036E00061CE82E00E94400C5DCEBB2079F0893330
:1036F00041F42FEF37EE83E0215030408040E1F776
:10370000CCCEEFE3FCE93197F1F7C7CE8C2F8F7168
:1037100084CFC631FCE7DF0709F031CD80912C0260
:103720008A7A91E009F490E09093D801811123CD39
:1037300089E20E9489070E946F0D16CCC6312CE7E2
:10374000D20709F01CCD8091D801811116CD89E2F4
:103750000E945E07F0CFCF93DF9380910002807FBD
:1037600009F04DC08091FF01882309F448C0E09121
:10377000400550910705C091FB01D091FA0160917D
:10378000FC017091FD0147E05E17C9F18E2F90E0BA
:10379000E49FF0011124E85FFA4F2481222391F184
:1037A000489FF001499FF00D1124DF01A85FBA4F37
:1037B00011962C9111972C1325C02C912D1322C0FA
:1037C00015962C91159721111DC012962D913C91A3
:1037D000261B370B283C3105A8F4809100028F701E
:1037E000806180930002E25FFA4F80818F70806178
:1037F00080838AEF91E00E9490170E94750BDF9101
:10380000CF910895FC013196E770BECFA4E1B0E0FE
:10381000ECE0FCE10C94B4288C0186E0F801DE01B8
:103820001F9601900D928A95E1F7F8018481E58059
:103830009AEFA92E91E0B92E9091FE01911128C026
:10384000882319F1EE20F1F0C8010E946C0CF82ECB
:103850008823C1F087E0F801D50101900D928A9587
:10386000E1F78091FE01813031F48091FA0190916D
:10387000FB010E94B30B0E94AB1B8F2D6496ECE002
:103880000C94D028C8010E949017FF24F394F5CF20
:10389000D080C18082809380F090FF012091FC0154
:1038A0003091FD01A401421B530BFF2009F4D9C044
:1038B000483C510508F092C08823F9F29091FB0131
:1038C00080910002282F207F09F056C0C91214C031
:1038D0009091FA01D91210C0E11048C08F70806138
:1038E000809300028AEF91E00E949017809100027D
:1038F000F8018683F12CC1CFE11038C06C2D8D2DDD
:103900000E94C5056C2D8D2D0E94C505E82E8111E4
:10391000F1CFDF86C88A8F8598890E94B30B292F43
:1039200022952F70243058F49F70223088F099230C
:1039300099F0F8019681907F79F4FE2C9ECF2A5F52
:103940002F70223068F0C8010E949017EF2CF5CF3D
:10395000992311F0882389F3805E883070F3F3CFC8
:10396000803F58F3815F833070F7E7CF809100028A
:10397000816080930002BECFC91207C09091FA0106
:10398000D91203C0EE2009F48DC0C8010E946C0C4E
:10399000882309F477CFEE2009F474CF80910002D8
:1039A000803288F02091FA013091FB013987288715
:1039B0009B868A869091FE019C871D868E87CE010C
:1039C00008960E94901787E0F801AAEFB1E00190F5
:1039D0000D928A95E1F70E94AB1B57CF90910002A0
:1039E000292F207F51F48AEF91E00E94901787E001
:1039F000F50111928A95E9F77DCF882309F43DCF2F
:103A00008091FB018C1110C08091FA01D8120CC07A
:103A1000E1100AC09683C8010E94901787E0F50163
:103A200011928A95E9F729CFC8010E946C0C88236E
:103A300009F428CFEE2009F425CF809100028032CE
:103A400010F22091FA013091FB013A8329839C8284
:103A50008B829091FE019D831E828F83CE01019601
:103A6000B0CF483C5105D0F6882309F40ECFFE2C88
:103A7000EE2009F407CF8091FB018C1120C08091CA
:103A8000FA01D8121CC08091000280FD0FC0982F4F
:103A9000907F61F08683903F31F0982F907F905F08
:103AA0008F70892B8683C8010E94901787E0F801E8
:103AB000AAEFB1E001900D928A95E1F7DECEC80140
:103AC0000E946C0C81117FCF8091000281608093F5
:103AD0000002C8010E949017D0CEABE1B0E0E3E74E
:103AE000FDE10C94BC284E8B5F8B688F798F8A8F99
:103AF0009B8F192F9111109203021D8A86E0FE01FF
:103B00007696DE011F9601900D928A95E1F70A8D57
:103B1000002341F021E04F85588969897A89C801DD
:103B20000E94B30C0B8B1C8B87E0FE013F96DE01DD
:103B3000189601900D928A95E1F7CE0108960E94A1
:103B4000061C81112AC087E0FE013896DE0111961D
:103B500001900D928A95E1F78C858823F1F02091F0
:103B6000070530E0C901019687709927409140050B
:103B700048171906E9F097E0929FD001939FB00D86
:103B80001124A85FBA4FFE01319601900D929A95CB
:103B9000E1F7809307050E94750B17E080914005BF
:103BA00090910705891312C06B96E4E00C94D82815
:103BB0000E942912109207051092400587E0EAEF53
:103BC000F1E0DF011D928A95E9F7E7CF819FC001FF
:103BD0001124885F9A4F0E94061C882329F3809144
:103BE000400590E001968770992780934005D6CFD5
:103BF0002F923F925F926F927F928F929F92AF929D
:103C0000BF92CF92DF92EF92FF920F931F93CF93C9
:103C1000DF938091CD04882309F487C08091CB0481
:103C20009091CC040E94E711C29708F45FC00E94F3
:103C3000F6119093CC048093CB0482EC92E09093A5
:103C40009E0280939D028091E30460E0882309F442
:103C500086C083E999E00E94630E8091A002909152
:103C6000A1020E948F0C882341F0813041F160E075
:103C700084E899E00E94630E05C060E08EE899E058
:103C80000E94A80E60E081E899E00E94630E60E067
:103C90008BE799E00E94A80E8091A0029091A1026A
:103CA0000E948F0C823009F452C068F0833009F40E
:103CB00052C060E083E699E00E94A80E09C060E06F
:103CC00089E899E0DDCF60E085E799E00E94630E26
:103CD00060E080E699E00E94630E0E94070881FB85
:103CE000662760F98AE599E00E94A80E8091C404D5
:103CF0009091C504892BC1F58091CA048823A9F04D
:103D00000E944F070091C6041091C7042091C80477
:103D10003091C904601B710B820B930B6F3F7F4F77
:103D20008F4F9F4710F40E94BB0EDF91CF911F91E0
:103D30000F91FF90EF90DF90CF90BF90AF909F904A
:103D40008F907F906F905F903F902F90089560E0EC
:103D50008FE699E0BBCF60E089E699E0B7CF86E9CE
:103D600099E00E94630EC2CF8091CD04882321F296
:103D70008091C3048111C0CF0E94D60E2091C4044B
:103D80003091C5042115310509F4B6CF80E041E03A
:103D900050E0082F10E01A01082E02C0220C331C3C
:103DA0000A94E2F7B10162237323672B11F48F5F4A
:103DB000F0CF9091C20490FF95C0880F880F880FB4
:103DC0008093450110924801895F8093460183E00A
:103DD0008093490124E630E047E050E063E471E07D
:103DE00088E70E940A26892B09F086CFA80125E0E2
:103DF000440F551F2A95E1F78091C20480FF84C0CB
:103E0000E2EAF2E080E2DF011D928A95E9F7AAEA90
:103E1000B1E006EA11E08EEAC82E81E0D82E97E0E4
:103E2000592E772473948D91E80129918E01240FE6
:103E3000352F311D2E533D4FE82FF0E0EE55FD4F4D
:103E400090E080E0652C681A872C082E01C0880C51
:103E50000A94EAF77901A12CE701B9907E01B82014
:103E6000662D6A196770962E062E000C770BDB2DD7
:103E700001C0DD0F9A94EAF7719561957109677039
:103E8000772701C0B6946A95EAF7BD2A6081962E1D
:103E90009B289082A39468E0A612DECF019631960B
:103EA0008830910579F6CA16DB0609F0BCCF04E626
:103EB00010E020E230E042EA52E060E488E70E944D
:103EC0009426892B09F018CFE101C095D0958091F7
:103ED000C4049091C504C823D923D093C504C093CA
:103EE000C4040ACF8295880F80768093450198019B
:103EF000369527953695279520934801815E8093C6
:103F000046012093490166CF4E535D4F04E610E011
:103F100020E230E0D2CFAFE0B0E0E1E9FFE10C9485
:103F2000B3288E010F5F1F4F8AE0F80111928A9526
:103F3000E9F78BE8C82E81E0D82EF12CE12CAA24D9
:103F4000A394B12C26E9822E21E0922EF6018191D4
:103F50006F018F3F09F442C0F894E82FE295EF70AB
:103F6000F0E021A18F70A50102C0440F551F8A9572
:103F7000E2F7CA01922F982B91A392A180958923F1
:103F800082A3789400C0E0E9F1E0712C31E0219146
:103F90002F3F09F49EC0A22FA295AF70B0E090967B
:103FA0008C9190E02F7002C0959587952A95E2F745
:103FB00080FD8FC0832F782A330F8E169F0639F726
:103FC000F601319780818F3F11F00E94E80850EA96
:103FD0005A95F1F7F801EE0DFF1D70828FEFE81A88
:103FE000F80A95E0E916F10409F0B0CF4AE050E094
:103FF000B8018CE692E00E941429009741F02AE073
:10400000F801ACE6B2E001900D922A95E1F700913B
:10401000770210E006581D4F892B09F45CC081E03F
:10402000809331020E94F6119093300280932F0208
:10403000D12CC090E304CC2009F4A4C07E01EBE0B5
:10404000EE0EF11C85E0F70111928A95E9F7809157
:1040500067028A3008F063C040EB50E1B701C80145
:104060000E943C0D882309F47CC04BE65FE0B70159
:10407000C8010E943C0D882309F473C043E650E157
:10408000B701C8010E943C0D882309F46AC045E1CC
:104090005FE0B701C8010E943C0D882309F461C0AC
:1040A000109267028091760290E045E050E0B701FF
:1040B00086589D4F0E94142921E020933802892BB5
:1040C00009F042C0C12C8C2D8D292F96EDE00C9467
:1040D000CF2880E070CFD0903102DD2009F4A8CF46
:1040E00080912F02909130020E94E711059708F409
:1040F0009FCF45E050E06CE672E0C8010E941429B1
:10410000892B59F085E0ECE6F2E0D80101900D92A0
:104110008A95E1F7109231028CCFD12CFBCF8091A0
:104120003202909133020E94E711843F914008F0DF
:1041300093CF80913802882329F285E0F70111920C
:104140008A95E9F710923802A0917602B0E0A6585D
:10415000BD4F85E0FE013B9601900D928A95E1F7F7
:10416000B2CF809167028F3F31F08F5F80936702FB
:104170008A3008F497CF0E94F6119093330280930F
:104180003202D7CFE0907602F12CA70146585D4F5E
:104190007A0185E0F801ACE4B2E001900D928A95D5
:1041A000E1F765E070E08CE492E00E94680880939B
:1041B0004B0285E0E1E5F2E0D70101900D928A958E
:1041C000E1F788E0EEECF4E0A7E5B2E001900D92B3
:1041D0008A95E1F768E070E087E592E00E94680860
:1041E0008093560280905F0290906002A0906102DE
:1041F000B09062028091340290913502A091360213
:10420000B091370288169906AA06BB0609F45BCF5F
:104210008092340290923502A0923602B092370218
:104220000E944F07861A970AA80AB90A8092680264
:1042300090926902A0926A02B0926B0244CFA6E00B
:10424000B0E0E5E2F1E20C94BC280E94F6118C018A
:1042500080912D0290912E028017910781F0198292
:104260001A820E94F611682F49815A81792F80E0C5
:1042700090E00E946D1D10932E0200932D02269651
:10428000E4E00C94D8281F921FB61F9211248F933C
:104290009F93AF93BF938091ED04811113C08091E0
:1042A000EE049091EF04A091F004B091F1044196D6
:1042B000A11DB11D8093EE049093EF04A093F00430
:1042C000B093F104BF91AF919F918F911F901FBE4A
:1042D0001F901895CDB7DEB72F970FB6F894DEBFB5
:1042E0000FBECDBF85B7806885BF85B7806885BFA5
:1042F00084B7877F84BF0FB6F894A895809160003B
:10430000886180936000109260000FBE80E890E0AA
:104310000FB6F89480936100909361000FBE81E026
:1043200080934F0182EE98E09093AF018093AE01AD
:104330000E94E4050E9485068091E20084608093DB
:10434000E20078948091FD048823A1F01091E900A7
:104350001F709091EC00892F817090FD80E8182BE0
:104360001092E9008091E80083FD0E945A121F70AC
:104370001093E90082E084BD93E095BD9AEF97BD6C
:1043800080936E00109268021092690210926A0285
:1043900010926B028091D80080618093D8002AE14E
:1043A0002A95F1F700C08091D900182F117080FD77
:1043B00004C00E94E4051092FD041093E3041093DE
:1043C000E4041093380111110E943827EEECF4E058
:1043D00088E0DF011D928A95E9F78091380191E02C
:1043E0008927809391028091380190939402809163
:1043F000380180913801811106C084EF80934A0111
:1044000085EF80934B0160E080E00E949A0861E0B4
:1044100080E00E949A08EFE8F1E03197F1F700C0E0
:10442000000010E080919402181708F4CBC080912E
:1044300038018091380195E0811190E090937702E6
:1044400085E0891B809376020BE811E050E9E52EA8
:1044500051E0F52ED8018D918D018F3F11F00E9412
:10446000E808E016F106B1F700E911E046E9E42EAC
:1044700041E0F42EF80181918F018F3F11F00E94ED
:10448000E808E016F106B1F78AE0EAE7F2E0DF01BA
:10449000282F1D922A95E9F7ECE6F2E0DF011D9244
:1044A0008A95E9F790E080E00E943229853E9E4F90
:1044B00009F461C065EE7EEF90E080E00E9466291D
:1044C00060E082E090E00E94482981E090E09093D3
:1044D00079028093780261E083E090E00E944829AD
:1044E00060E074E184E090E00E94662960E086E08C
:1044F00090E00E94482960E087E090E00E9448290F
:1045000040E050E0BA0188E090E00E945A2960E063
:1045100083E290E00E94482960E08CE090E00E94F5
:10452000482960E08DE090E00E94482919821A82B3
:104530001B821C821D821E821F82188648E050E06A
:1045400067E170E0CE0101960E94382940E050E01A
:10455000BA018FE190E00E945A2940E050E0BA0190
:104560008FE090E00E945A2940E050E0BA0183E1D8
:1045700090E00E945A2982E090E00E942A298093CC
:10458000840284E090E00E9432299093EC048093AE
:10459000EB040E948B1FEFEFF6E721E0E150F040C3
:1045A0002040E1F700C000000E948B1F80917A023A
:1045B00080FF1AC06FEF7FEF90E080E00E946629D5
:1045C0000E943E0760E0812F0E947E08082F61E074
:1045D000812F0E947E08E12FF0E0EE56FD4F880FFC
:1045E000802B80831F5F1ECF83E090E00E942A29EA
:1045F00090E00E94670C8091E304882309F4BCC01A
:1046000083E08093C20480FDB9C080E880939F025C
:104610000E94D6256BE070E08BE094E00E94AE0E25
:104620008823E9F18091C20465E070E081FDA8C0B3
:1046300086E094E00E94AE0E882389F16DE070E080
:1046400084EF93E00E94AE0E882349F10E944F0749
:10465000605A75418F4F9F4F6093C6047093C70493
:104660008093C8049093C904E2ECF2E080E092E009
:10467000DF019C011D9221503040E1F7F0939E0232
:10468000E0939D028FEF9FEF9093C5048093C40445
:1046900081E08093CD048093CA041092C30480917A
:1046A000E304811102C00E943B2789E391E09093CB
:1046B000E8048093E70498E1C92ED12C24E8A22EC7
:1046C00022E0B22E7724739432E0832E912C8091D5
:1046D000FD0412E1853009F488C00E948B1F05E8B3
:1046E00012E08AE7E82E82E0F82ED701F8019191D6
:1046F0008D9122E0EF38F20709F481C09817B9F3E1
:104700003091E3043F87612CD7015D907D01F80172
:1047100021908F01251439F1412C33243394252421
:10472000822D8321C1F0FF85FF23A9F049866A8687
:104730000E94F6119C878B8721E02D8791E0852DC3
:10474000832109F490E09E8749855A856B857C8595
:104750008D850E946D1D4394330C36E04312E0CFEB
:10476000F8013197508263948AE06812CDCF0E949D
:10477000FF086624639448C080E043CF80E246CFC0
:1047800081E094E057CF8091FD04843021F10E94B4
:10479000BB0E1092ED0430E40FB6F894A895C092C9
:1047A00060000FBE3093600083B7817F846083BF59
:1047B00083B7816083BF7894889583B78E7F83BFEA
:1047C0000FB6F894A895809160008861809360008E
:1047D000109260000FBE0E948B1FEAE7F2E0819109
:1047E000811167C1AE16BF06D1F78091FD048530F7
:1047F00009F4C9CF0E9429120E9407086ECF9813AE
:104800007FCF0E941F21612CE090E304EE2019F07D
:104810000E946117E82E80919502882351F0109232
:1048200095028091D0048093D1048091CE0480932E
:10483000CF04F12C80919402F81688F08091E30463
:10484000882319F00E946117E82AEE2009F443C07A
:104850000E94FF080E94F81D0E94D60E40C061E031
:104860008F2D0E947E08182F60E08F2D0E947E08F9
:10487000E12FEE0F8E2B0F2D10E0D801AE56BD4F5D
:10488000EC919E2F9370891721F1EE0FEE0FE82B1C
:10489000EC93809191028F0DEF70F0E0EA56FE4F9D
:1048A00001571D4F5080D8019C91590E5C92B1E088
:1048B00060E0B51524F0EFEF5E161CF461E00E9495
:1048C000BD08852D550C990BB4010E94F128D80123
:1048D0008C93F394AFCF0E94F81D6110BDCF86E09A
:1048E000EDEDF4E0DE01119601900D928A95E1F76D
:1048F0006090DE040091DF041091E004E090E10498
:10490000F090E2041092DF041092E0041092E104AF
:104910001092E204812F802B09F445C08091DB04C2
:104920009091DC040E94E7119C019091D604992398
:1049300009F4E5C025313105B0F19F3F19F09F5FC3
:104940009093D604002359F00E943A089FEF101666
:104950000CF491E0899F802D11248093DF041123B2
:1049600059F00E943A0891E011160CF09FEF899FD0
:10497000802D11248093E0048091DF04882399F036
:104980005090E004552079F00E945A08882309F4D9
:1049900084C08093DF04852D0E945A08882309F47F
:1049A0007FC08093E0048E2D8F2909F444C080914C
:1049B000D9049091DA040E94E7119C019091D704E8
:1049C000992309F497C021353105A8F19F3F19F0CB
:1049D0009F5F9093D704EE2059F00E9418089FEF34
:1049E0001E140CF491E0899F802D11248093E10422
:1049F000FF2059F00E94180891E01F140CF09FEF5F
:104A0000899F802D11248093E2048091E104882302
:104A100091F0E090E204EE2071F00E945A088823A1
:104A200009F441C08093E1048E2D0E945A08882326
:104A3000E9F18093E2048091DE04861117C0809131
:104A4000DF04882311F0081311C02091E004222311
:104A500011F012130BC09091E204992311F0F91296
:104A600005C03091E104332309F43FC00E940212D3
:104A700086E0FE013196ADEDB4E001900D928A958D
:104A8000E1F70E94070890919602891709F41FCE5A
:104A9000809396020E944F071ACE7092DF047BCF5C
:104AA0007092E00480CF7092E104BECF7092E20475
:104AB000C2CF8091FC04882309F497CE80E189BDA0
:104AC00019BD09B400FEFDCF8091D8008F7D809381
:104AD000D8008091E00082608093E0008091E00047
:104AE00081FDFCCF0E94291280CE822B892B09F4F4
:104AF000BFCFBCCF2B30310508F06ACF9CCF2B3015
:104B0000310508F01CCF4FCFEF92FF920F931F9308
:104B1000CF93DF93182FEB011092BC0084EA8093AF
:104B2000BC000E94F6117C018091BC0087FF27C069
:104B30008091B900887F883029F08091B900887F02
:104B4000803189F51093BB0084E88093BC000E94FB
:104B5000F6118C018091BC0087FF1EC02091B90026
:104B6000287F90E080E0283191F081E090E02034CF
:104B700011F490E080E091958195910908C0C701FA
:104B80000E94E711C817D90778F68EEF9FEFCDB7CF
:104B9000DEB7E6E00C94D628C8010E94E711C817DA
:104BA000D907C0F6F2CF8FEF9FEFF1CF1092B90087
:104BB0008CE08093B80008950F931F93CF93DF93F9
:104BC000EB018093BB0084E88093BC000E94F61147
:104BD0008C018091BC0087FF11C02091B900287F13
:104BE00081E090E0283211F490E080E09195819589
:104BF0009109DF91CF911F910F910895CF3FDC076D
:104C000041F3C8010E94E711C817D90710F78EEFCA
:104C10009FEFEFCFB0E0A0E0E0E1F6E20C94B32824
:104C2000782E5B016A0189010E94F6114C01C1E0F6
:104C3000D0E00431110558F0C5E0D0E00F3F100777
:104C400031F0C80164E170E00E949A28EB01BE01D6
:104C5000872D0E9484257C0197FF09C00F3F100714
:104C6000B1F3C4010E94E7110817190780F7E501A5
:104C7000CA0CDB1CCC15DD0511F0F7FE09C084E978
:104C80008093BC00C701CDB7DEB7EDE00C94CF2810
:104C9000B80189910E94DC257C01ECCFB0E0A0E056
:104CA000E4E5F6E20C94B328782E5B016A018901F1
:104CB0000E94F6114C01C1E0D0E00431110558F01A
:104CC000C5E0D0E00F3F100731F0C80164E170E0AB
:104CD0000E949A28EB01BE01872D0E9484257C0149
:104CE00097FF09C00F3F1007B1F3C4010E94E711FD
:104CF0000817190780F7E501CA0CDB1CCC15DD0588
:104D000011F0F7FE09C084E98093BC00C701CDB75C
:104D1000DEB7EDE00C94CF28FE018491B8010E942B
:104D2000DC257C012196EACFB0E0A0E0EAE9F6E2DA
:104D30000C94B228682E762E5A0169010E94F61151
:104D40004C01C1E0D0E00431110558F0C5E0D0E0DD
:104D50000F3F100731F0C80164E170E00E949A280B
:104D6000EB01BE01862D0E9484257C0197FF1DC0AA
:104D70000F3F1007B1F3C4010E94E711081719078C
:104D800080F784E98093BC00C701CDB7DEB7EEE0C1
:104D90000C94CE28B80189910E94DC257C01CC16A8
:104DA000DD0679F3F7FEF6CFECCFB801872D0E9430
:104DB000DC257C01E501CA0CDB1CF1CF8EE14A9BAE
:104DC00002C08150E1F74A9BFECF08955A9880E2D5
:104DD0008A95F1F75A9A0895FC013BE03A95F1F76C
:104DE00098E020E080E031E040E14A95F1F7880F5B
:104DF0004A9B02C08160232742E04A95F1F70000F8
:104E000040E14A95F1F7915079F790E19A95F1F7E1
:104E100099B132E03A95F1F7000040E14A95F1F797
:104E200092FB992790F992272081920F9083089501
:104E3000A1E0B0E0EEE1F7E20C94BA2819828C010F
:104E40007C01E60EF11C0E151F0541F481E09981ED
:104E5000911180E02196E6E00C94D6280E94DE268F
:104E6000CE0101960E94EC26F80181938F01EBCFD1
:104E7000529A5A9A089552985A9AEA9AE9E6F0E0B4
:104E800080818F7C808308956150770B91E001C011
:104E9000990F6A95EAF720E031E0911108C02223CA
:104EA00091F05A9A80E28A95F1F75A980895492F1D
:104EB000482339F05A9A232740E24A95F1F796950C
:104EC000ECCF5A98F9CF5A98EDCFFF920F931F93DA
:104ED000CF93DF93EC018C01060F111DC017D10792
:104EE00029F4CDB7DEB7E5E00C94D728F9900E94FD
:104EF000E62668E08F2D0E944427F0CF1F920F9284
:104F00000FB60F9211240F931F932F933F934F933C
:104F10005F936F937F938F939F93AF93BF93EF9321
:104F2000FF93CF93DF930F92CDB7DEB719820E9424
:104F3000DE26CE0101960E94EC26082F06950695E6
:104F40000695282F22952570902F9570290F922F66
:104F5000937026952695920F982797708981982BA4
:104F600009F05CC0083008F059C080E18A95F1F77B
:104F70005A9A529A82E08A95F1F700C05A9888E0CE
:104F8000089F80011124D801A050BF4F1696ED91C3
:104F9000FC9117973097A9F06091890170918A016F
:104FA00014962D913C911597260F371F11968D91D0
:104FB0009C911297680F791F13964C9113978C91BF
:104FC0000995F801E050FF4F6381662351F020916D
:104FD000890130918A0184819581820F931F0E94FB
:104FE00065270E94E62680E18A95F1F75A98529843
:104FF0005A9A80E18A95F1F7F801E050FF4F6081FD
:10500000662351F02091890130918A01818192813A
:10501000820F931F0E9418270E94DE260F90DF91B7
:10502000CF91FF91EF91BF91AF919F918F917F9120
:105030006F915F914F913F912F911F910F910F9021
:105040000FBE0F901F9018950F931F93CF93DF9370
:10505000EC0108970CF04CC0F894529A5A9885E0ED
:105060008A95F1F700009C2F969595708C2F85708E
:10507000980F892F83709695969523E0CC0FDD1FAE
:105080002A95E1F7980F8E01092B0E94E62600C0B1
:1050900068E0802F0E94442780E18A95F1F75298BA
:1050A0005A9A4A9B1EC087E090E04A991CC0FE01B4
:1050B000E050FF4F63816623F9F020918901309120
:1050C0008A0184819581820F931F0E941827811184
:1050D00013C0529A5A9A7894DF91CF911F910F91F1
:1050E000089500C0DECF019729F4529A5A9A789415
:1050F00080E0F2CF00C0D9CF0E94DE2680E28A9500
:10510000F1F75A98529A80E18A95F1F7C050DF4F33
:105110006881662351F02091890130918A0189814B
:105120009A81820F931F0E9465270E94E626789439
:1051300081E0D2CFAA1BBB1B51E107C0AA1FBB1F36
:10514000A617B70710F0A61BB70B881F991F5A9513
:10515000A9F780959095BC01CD0108952F923F92BB
:105160004F925F926F927F928F929F92AF92BF9277
:10517000CF92DF92EF92FF920F931F93CF93DF9323
:10518000CDB7DEB7CA1BDB0B0FB6F894DEBF0FBE80
:10519000CDBF09942A88398848885F846E847D84CD
:1051A0008C849B84AA84B984C884DF80EE80FD80CF
:1051B0000C811B81AA81B981CE0FD11D0FB6F89445
:1051C000DEBF0FBECDBFED010895991B79E004C08D
:1051D000991F961708F0961B881F7A95C9F7809536
:1051E000089597FB072E16F4009407D077FD09D099
:1051F0000E949A2807FC05D03EF4909581959F4F18
:105200000895709561957F4F0895EE0FFF1F0590EB
:10521000F491E02D0994FB01DC0102C005900D9290
:1052200041505040D8F70895FB01DC0104C08D9136
:105230000190801921F441505040C8F7881B990B08
:105240000895FB01DC0102C001900D9241505040D5
:10525000D8F70895F999FECF92BD81BDF89A9927A4
:1052600080B50895A8E1B0E042E050E00C946E29CA
:10527000DC01A40FB51F4150504048F0CB01840F12
:10528000951F2E910E94492941505040D0F7089512
:10529000262FF999FECF92BD81BDF89A019700B4EF
:1052A000021639F01FBA20BD0FB6F894FA9AF99A8F
:1052B0000FBE08950396272F0E9449290E9448296E
:1052C000252F0E944929242F0C9449290196272F24
:1052D0000E9449290C944829DC01CB01FC01F99971
:1052E000FECF06C0F2BDE1BDF89A319600B40D9232
:1052F00041505040B8F70895F894FFCF3D1365131F
:105300000415651304159813B9130415B614C314C2
:10531000CC17D017AE17C817D417D817DC17381802
:10532000AD1840180A180E184418121848185418C6
:105330001E18A6182218581826185C1884182A183F
:1053400060188B18301866186E1816184C181A1832
:10535000501834186A187A189418A41804183C18AD
:10536000B41872197219AA19AA19581A741AD219EA
:0A537000D219791A011B101B101B43
:10537A00000000010000000000000005010000001C
:10538A000506000000000000000000010B000000FC
:10539A00000000080C000000000000000000E40803
:1053AA000414000000000000015B07280D210D1AFB
:1053BA000D130D0021007F220003F5F40000010007
:1053CA00818283E200E900EA00B500B600B700CDA9
:1053DA00008301CC008A0192019401210223022454
:1053EA00022502260227022A02B300B4006F0070C7
:1053FA00009F01CB019F02A0024B026697C634357B
:10540A00F6F73133323600FF0100010000FFFF00DA
:0E541A0000010001FF00000810181810080023
:00000001FF
